:100000000C9454000C9469000C9469000C946900E1
:100010000C9469000C9469000C9469000C946900BC
:100020000C9469000C9469000C9469000C946900AC
:100030000C9469000C9469000C9469000C9469009C
:100040000C9469000C9469000C9469000C9469008C
:100050000C9469000C9469000C9469000C9469007C
:100060000C9469000C94690000000000000000007E
:100070000010101010101000001818181818180090
:10008000001C1C1C1C1C1C00001E1E1E1E1E1E0014
:10009000001F1F1F1F1F1F00030202020202020394
:1000A000180808080808081811241FBECFEFD8E068
:1000B000DEBFCDBF11E0A0E0B1E0EEEBF8E002C0A2
:1000C00005900D92A430B107D9F70E94E5020C9477
:1000D0005D040C94000087FF02C02D9A01C02D988A
:1000E00086FF02C02C9A01C02C9885FF02C02B9A73
:1000F00001C02B9884FF02C02A9A08952A98089577
:10010000FF920F931F93F82E807F0E946B00289A16
:10011000299A08E813E1C8010197F1F7299828986E
:10012000C8010197F1F78F2D8295807F0E946B00A7
:10013000289A299AC8010197F1F729982898C801A7
:100140000197F1F71F910F91FF900895FF920F9380
:100150001F93F82E807F0E946B00299A08E813E114
:10016000C8010197F1F72998C8010197F1F78F2D80
:100170008295807F0E946B00299AC8010197F1F750
:100180002998C8010197F1F71F910F91FF900895E9
:1001900081E00E94A60008950F931F93CF93DF93F1
:1001A0008C01662311F080EC01C080E80E94A6005B
:1001B000C0E0D0E0F801EC0FFD1F80810E948000BC
:1001C0002196C031D105B1F7DF91CF911F910F91E9
:1001D0000895623031F0633031F0613029F4805C91
:1001E00003C08C5E01C08C5A80680E94A6000895EE
:1001F000EF92FF920F931F93CF93DF937C01162F03
:10020000110F110F110F1064C0E0D0E0F701EC0FD7
:10021000FD1F0491812F8C0F0E94A600802F0E9449
:1002200080002196C830D10589F7DF91CF911F91C9
:100230000F91FF90EF9008950F931F93CF93DF934B
:1002400086E990E024EF31E0F9013197F1F7019769
:10025000D9F7229A239A249A259A209A209A219AA9
:1002600080E00E946B0028982898299880E30E94DB
:100270006B00299A08E813E1C8010197F1F7299862
:10028000C8010197F1F780E30E946B00299AC80129
:100290000197F1F72998C8010197F1F780E20E94D0
:1002A0006B00299AC8010197F1F72998C8010197B5
:1002B000F1F788E20E94A6008CE00E94A600C8E642
:1002C000D0E060E0162F1F5FCE010E94F800289654
:1002D000612F1830B9F7DF91CF911F910F910895D9
:1002E0000F931F93082F10E004C088E10E94A6001E
:1002F0001F5F1017D0F31F910F9108950F931F9355
:10030000082F10E004C08EE10E94A6001F5F1017A6
:10031000D0F31F910F9108950F931F93082F10E0B2
:1003200004C080E10E94A6001F5F1017D0F31F9148
:100330000F9108950F931F93082F10E004C084E1DC
:100340000E94A6001F5F1017D0F31F910F91089510
:1003500087FF02C0459A01C0459886FF02C0449AB3
:1003600001C0449885FF02C0439A01C0439884FFAE
:1003700002C0429A089542980895FF920F931F93E6
:10038000F82E807F0E94A801409A419A08E813E164
:10039000C8010197F1F741984098C8010197F1F71A
:1003A0008F2D8295807F0E94A801409A419AC801B2
:1003B0000197F1F741984098C8010197F1F71F9113
:1003C0000F91FF900895FF920F931F93F82E807F57
:1003D0000E94A801419A08E813E1C8010197F1F7CA
:1003E0004198C8010197F1F78F2D8295807F0E9477
:1003F000A801419AC8010197F1F74198C8010197F6
:10040000F1F71F910F91FF90089581E00E94E301A1
:1004100008950F931F93CF93DF938C01662311F000
:1004200080EC01C080E80E94E301C0E0D0E0F80168
:10043000EC0FFD1F80810E94BD012196C031D105C6
:10044000B1F7DF91CF911F910F910895623031F094
:10045000633031F0613029F4805C03C08C5E01C0F0
:100460008C5A80680E94E3010895EF92FF920F93E7
:100470001F93CF93DF937C01162F110F110F110FD4
:100480001064C0E0D0E0F701EC0FFD1F0491812F54
:100490008C0F0E94E301802F0E94BD012196C8307D
:1004A000D10589F7DF91CF911F910F91FF90EF90C8
:1004B00008950F931F93CF93DF9386E990E024EF85
:1004C00031E0F9013197F1F70197D9F73A9A3B9A60
:1004D0003C9A3D9A389A389A399A80E00E94A8014D
:1004E00040984098419880E30E94A801419A08E80A
:1004F00013E1C8010197F1F74198C8010197F1F79D
:1005000080E30E94A801419AC8010197F1F7419840
:10051000C8010197F1F780E20E94A801419AC80141
:100520000197F1F74198C8010197F1F788E20E941D
:10053000E3018CE00E94E301C8E6D0E060E0162F02
:100540001F5FCE010E9435022896612F1830B9F73F
:10055000DF91CF911F910F9108950F931F93082F53
:1005600010E004C088E10E94E3011F5F1017D0F380
:100570001F910F9108950F931F93082F10E004C04F
:100580008EE10E94E3011F5F1017D0F31F910F91BE
:1005900008950F931F93082F10E004C080E10E947C
:1005A000E3011F5F1017D0F31F910F9108950F9370
:1005B0001F93082F10E004C084E10E94E3011F5F35
:1005C0001017D0F31F910F910895CF92DF92EF9201
:1005D000FF921F93DF93CF93CDB7DEB760970FB62F
:1005E000F894DEBF0FBECDBF88E893E124EF31E081
:1005F000F9013197F1F70197D9F70E941C010E9488
:10060000C8000E9459020E940502FE01319680E155
:10061000DF011D928A95E9F710E084EFC82E81E092
:10062000D82E7F010CC00E94BA03F701E10FF11D23
:1006300064E170E00E9442038F5B80831F5F15308E
:1006400090F380E395E7F6013197F1F70197D9F739
:100650000E94C8000E94BA0362E070E00E94420358
:10066000682FC7010E94CC000E9405020E94BA03B5
:1006700062E070E00E944203682FC7010E940902F5
:1006800010E0D1CF97FB092E07260AD077FD04D0C2
:100690000CD006D000201AF4709561957F4F089514
:1006A000F6F7909581959F4F0895AA1BBB1B51E1CA
:1006B00007C0AA1FBB1FA617B70710F0A61BB70BD2
:1006C000881F991F5A95A9F780959095BC01CD0177
:1006D0000895A0E0B0E0EFE6F3E00C940C04EC0128
:1006E000A880B980CA80DB80A114B104C104D10400
:1006F00041F484E2A82E89EDB82E8BE5C82E87E060
:10070000D82EC601B5012DE133EF41E050E00E9443
:10071000E90327EA31E440E050E00E94CA037B018C
:100720008C01C601B5012DE133EF41E050E00E949C
:10073000E903CA01B9012CEE34EF4FEF5FEF0E94DD
:10074000CA036E0D7F1D801F911F97FF04C061506B
:10075000704080409048688379838A839B839B01A3
:100760003F77C901CDB7DEB7EAE00C9428040E94B8
:100770006903089580E091E00E9469030895A0E074
:10078000B0E08093000190930101A0930201B09327
:1007900003010895629FD001739FF001829FE00DD5
:1007A000F11D649FE00DF11D929FF00D839FF00DF0
:1007B000749FF00D659FF00D9927729FB00DE11D9C
:1007C000F91F639FB00DE11DF91FBD01CF01112479
:1007D000089597FB092E05260ED057FD04D04BD067
:1007E0000AD0001C38F450954095309521953F4F24
:1007F0004F4F5F4F0895F6F79095809570956195EE
:100800007F4F8F4F9F4F08952F923F924F925F924D
:100810006F927F928F929F92AF92BF92CF92DF9210
:10082000EF92FF920F931F93CF93DF93CDB7DEB775
:10083000CA1BDB0B0FB6F894DEBF0FBECDBF099409
:100840002A88398848885F846E847D848C849B8460
:10085000AA84B984C884DF80EE80FD800C811B816E
:10086000AA81B981CE0FD11D0FB6F894DEBF0FBE9D
:10087000CDBFED010895A1E21A2EAA1BBB1BFD01FD
:100880000DC0AA1FBB1FEE1FFF1FA217B307E4076F
:10089000F50720F0A21BB30BE40BF50B661F771FC7
:1008A000881F991F1A9469F76095709580959095A7
:0E08B0009B01AC01BD01CF010895F894FFCF6C
:0408BE000100000035
:00000001FF
