:100000000C9479000C94AA010C9496000C94960020
:100010000C9496000C9496000C9496000C94960008
:100020000C9496000C9496000C9496000C949600F8
:100030000C9496000C9496000C9496000C949600E8
:100040000C9496000C9496000C9496000C949600D8
:100050000C9496000C9496000C9496000C949600C8
:100060000C9496000C949600040309041403610098
:100070006D0063006E00690063006F006C006C002F
:100080000E035500530042004C004300440012018F
:100090001001FF000008C016DC050001010200018C
:1000A00009021200010100C0320904000000000032
:1000B00000000000000000000000001010101010F0
:1000C00010000018181818181800001C1C1C1C1C04
:1000D0001C00001E1E1E1E1E1E00001F1F1F1F1FB5
:1000E0001F0003020202020202031808080808089F
:1000F000081811241FBECFEFD8E0DEBFCDBF11E03E
:10010000A0E0B1E0ECECFDE002C005900D92A6325B
:10011000B107D9F711E0A6E2B1E001C01D92A13903
:10012000B107E1F70E9440050C94E4060C9400002E
:10013000E9E6F0E0808182608083E89A08951F9369
:10014000CF93DF9390917701935097FD8EC02091CC
:100150007401809173018D3209F085C0983009F0E7
:1001600082C0CCE0D0E0C21BD109C558DE4F83EC81
:10017000809367018AE5809300011092260198819F
:10018000892F807629F0CE010E942F05282F62C08A
:100190002A81109270018981882349F49F7119F492
:1001A00081E0809370011092710122E04DC0853092
:1001B00019F42093780147C08630B1F58B818130E6
:1001C00019F48EE890E004C0823041F480EA90E0B7
:1001D000909376018093750122E122C08330F9F477
:1001E0008A81882341F488E690E090937601809399
:1001F000750124E015C0813041F48CE690E09093C5
:1002000076018093750124E10BC0823041F480E8CF
:1002100090E090937601809375012EE001C020E07C
:1002200080E48093260116C0883021F421E08AE71B
:1002300091E00CC0893019F420937A0104C08A300F
:1002400011F421E001C020E080E791E09093760175
:10025000809375018F81882321F48E81821708F4A1
:10026000282F20930101109277018091000184FFD3
:100270004AC0809101018F3F09F445C0182F893091
:1002800008F018E0811B809301018091670198E8D4
:10029000892780936701112341F1209175013091E5
:1002A00076018091260186FF0DC0A8E6B1E080E0CE
:1002B00090E0F901E80FF91FE491ED93019618170A
:1002C000C1F708C0912FD901E8E6F1E08D91819343
:1002D0009150E1F71150812F90E01F5F0196820F3E
:1002E000931F909376018093750188E691E0612FCA
:1002F0000E94A601612F6C5F6C3019F08FEF809324
:1003000001016093000194E189B18C7031F4915046
:10031000D9F71092780110927201DF91CF911F915D
:100320000895A82FB92F80E090E041E050EA609551
:1003300030E009C02D9182279795879510F084278A
:100340009527305EC8F36F5FA8F30895EADF8D93B9
:100350009D930895CF93CFB7CF93DF93C3954B9BD6
:10036000E9F74B9B11C04B9B0FC04B9B0DC04B9BA8
:100370000BC04B9B09C04B9B07C04B9B05C04B9BC5
:1003800003C04B9B01C081C06F93C0917401DD27F6
:10039000C558DE4F2F9320E400C065E04B9B03C09F
:1003A0002F916F91DECF0F931F934F9345E55F938E
:1003B00055E53F933BE014E009B10C702EC06A95FF
:1003C000C9F03150D8F109B10C7001130BC0089479
:1003D0002795299320E4555500F46A9569F701E0C3
:1003E00069B10BC0102F66E02695299320E455557E
:1003F00018F3E2CF0FEF69B10000162F455500F05A
:10040000404066E01C700030E2F221F0000009B1CB
:100410000C7003C009B10C70A9F0011309C0089455
:10042000279568F200C06A95A9F700E069B1E5CFA9
:10043000102F66E0269528F20000ECCF11E01CBBDF
:10044000002717C03B503195C31BD04011E01CBBA7
:100450000881033CF9F00B34E9F020917201198115
:10046000110F1213EDCF093651F10D3211F0013E8B
:1004700039F7009379013F915F914F911F910F914F
:100480002F916F91CCB3C0FD69CFDF91CF91CFBFDA
:10049000CF91189520917901222369F3109177016A
:1004A000112329F534302AF1309377012093730119
:1004B000109174013BE0311B309374011AC000911C
:1004C00077010130A4F40AE53091000134FD12C037
:1004D00000930001C7E6D1E011C0052710E000C07D
:1004E0000BB919C0052710E0221F00C01DC04AE546
:1004F00002C032ED432FC4E1D0E032E01AB11C60FB
:100500005B9A0BB11AB95CE020E869E420FF05278B
:100510000BB92795179500C000001C3FF0F66695B3
:10052000A8F7A1F720FF05270BB92795179500001D
:100530001C3FC0F629913A9541F7037F109178014D
:10054000110F0BB9C651D04011F01093720111E098
:100550001CBB08601AB1137F402F437F55E05A95AA
:10056000F1F70BB91AB94BB986CF87FF02C02D9AA4
:1005700001C02D9886FF02C02C9A01C02C9885FFDF
:1005800002C02B9A01C02B9884FF02C02A9A0895BA
:100590002A980895FF920F931F93F82E807F0E9450
:1005A000B502289A299A08E813E1C8010197F1F7E2
:1005B00029982898C8010197F1F78F2D8295807F9F
:1005C0000E94B502289A299AC8010197F1F7299843
:1005D0002898C8010197F1F71F910F91FF90089596
:1005E000FF920F931F93F82E807F0E94B502299AE5
:1005F00008E813E1C8010197F1F72998C8010197AC
:10060000F1F78F2D8295807F0E94B502299AC8014B
:100610000197F1F72998C8010197F1F71F910F9100
:10062000FF90089581E00E94F00208950F931F93B8
:10063000CF93DF938C01662311F080EC01C080E83A
:100640000E94F002C0E0D0E0F801EC0FFD1F8081B5
:100650000E94CA022196C031D105B1F7DF91CF9136
:100660001F910F910895623031F0633031F06130A5
:1006700029F4805C03C08C5E01C08C5A80680E94A3
:10068000F0020895EF92FF920F931F93CF93DF93A1
:100690007C01162F110F110F110F1064C0E0D0E074
:1006A000F701EC0FFD1F0491812F8C0F0E94F002C7
:1006B000802F0E94CA022196C830D10589F7DF91A8
:1006C000CF911F910F91FF90EF9008950F931F937B
:1006D000CF93DF9386E990E024EF31E0F901319781
:1006E000F1F70197D9F7229A239A249A259A209A0A
:1006F000209A219A80E00E94B5022898289829988B
:1007000080E30E94B502299A08E813E1C801019725
:10071000F1F72998C8010197F1F780E30E94B5022B
:10072000299AC8010197F1F72998C8010197F1F7B3
:1007300080E20E94B502299AC8010197F1F7299831
:10074000C8010197F1F788E20E94F0028CE00E9454
:10075000F002C2EBD0E060E0162F1F5FCE010E94D6
:1007600042032896612F1830B9F7DF91CF911F917E
:100770000F9108950F931F93082F10E004C088E194
:100780000E94F0021F5F1017D0F31F910F91089580
:100790000F931F93082F10E004C08EE10E94F00217
:1007A0001F5F1017D0F31F910F9108950F931F93A0
:1007B000082F10E004C080E10E94F0021F5F1017B4
:1007C000D0F31F910F9108950F931F93082F10E0FE
:1007D00004C084E10E94F0021F5F1017D0F31F9144
:1007E0000F91089587FF02C0459A01C0459886FF82
:1007F00002C0449A01C0449885FF02C0439A01C0D8
:10080000439884FF02C0429A089542980895FF9247
:100810000F931F93F82E807F0E94F203409A419A13
:1008200008E813E1C8010197F1F741984098C80121
:100830000197F1F78F2D8295807F0E94F203409AF5
:10084000419AC8010197F1F741984098C801019772
:10085000F1F71F910F91FF900895FF920F931F934F
:10086000F82E807F0E94F203419A08E813E1C80144
:100870000197F1F74198C8010197F1F78F2D829503
:10088000807F0E94F203419AC8010197F1F74198D5
:10089000C8010197F1F71F910F91FF90089581E032
:1008A0000E942D0408950F931F93CF93DF938C0123
:1008B000662311F080EC01C080E80E942D04C0E0A6
:1008C000D0E0F801EC0FFD1F80810E940704219603
:1008D000C031D105B1F7DF91CF911F910F910895EC
:1008E000623031F0633031F0613029F4805C03C054
:1008F0008C5E01C08C5A80680E942D040895EF928E
:10090000FF920F931F93CF93DF937C01162F110F4C
:10091000110F110F1064C0E0D0E0F701EC0FFD1FC4
:100920000491812F8C0F0E942D04802F0E940704B8
:100930002196C830D10589F7DF91CF911F910F9192
:10094000FF90EF9008950F931F93CF93DF9386E965
:1009500090E024EF31E0F9013197F1F70197D9F7F1
:100960003A9A3B9A3C9A3D9A389A389A399A80E05A
:100970000E94F20340984098419880E30E94F2035D
:10098000419A08E813E1C8010197F1F74198C801BD
:100990000197F1F780E30E94F203419AC8010197A1
:1009A000F1F74198C8010197F1F780E20E94F20344
:1009B000419AC8010197F1F74198C8010197F1F7F1
:1009C00088E20E942D048CE00E942D04C2EBD0E04E
:1009D00060E0162F1F5FCE010E947F042896612FD2
:1009E0001830B9F7DF91CF911F910F9108950F93B0
:1009F0001F93082F10E004C088E10E942D041F5FA0
:100A00001017D0F31F910F9108950F931F93082F84
:100A100010E004C08EE10E942D041F5F1017D0F378
:100A20001F910F9108950F931F93082F10E004C09A
:100A300080E10E942D041F5F1017D0F31F910F91CA
:100A400008950F931F93082F10E004C084E10E94C3
:100A50002D041F5F1017D0F31F910F910895FC0113
:100A60008181813059F40E94410662E070E00E9469
:100A7000C905682F87E291E00E94160380E008957F
:100A8000DF93CF93CDB7DEB7A0970FB6F894DEBF54
:100A90000FBECDBF88E893E124EF31E0F901319733
:100AA000F1F70197D9F70E9466030E9412030E9492
:100AB000A3040E944F04DE011196E2E1F1E080E11F
:100AC00001900D928150E1F7DE015196E2E0F1E0F4
:100AD00080E101900D928150E1F720E030E0AE011D
:100AE0004F5F5F4FF901E95DFE4FDA01A20FB31FBF
:100AF0008C9180832F5F3F4F2031310599F720E0A3
:100B000030E0AE014F5E5F4FF901E95CFE4FDA0164
:100B1000A20FB31F8C9180832F5F3F4F203131058F
:100B200099F72EE088E190E00FB6F894A8958093AD
:100B300060000FBE209360000E949800539A20E04E
:100B400044EF51E0A89588EC90E0FA013197F1F775
:100B50000197D9F72F5F2A3FA9F7539878940E94FD
:100B6000410662E070E00E94C905682F87E391E0CA
:100B70000E9416030E94410662E070E00E94C905CF
:100B8000682F87E391E00E945304A8950E949F007C
:100B9000FCCF97FB092E07260AD077FD04D00CD096
:100BA00006D000201AF4709561957F4F0895F6F7EE
:100BB000909581959F4F0895AA1BBB1B51E107C0DB
:100BC000AA1FBB1FA617B70710F0A61BB70B881FDD
:100BD000991F5A95A9F780959095BC01CD0108956C
:100BE000A0E0B0E0E6EFF5E00C949306EC01A880FD
:100BF000B980CA80DB80A114B104C104D10441F4DE
:100C000084E2A82E89EDB82E8BE5C82E87E0D82E79
:100C1000C601B5012DE133EF41E050E00E947006BE
:100C200027EA31E440E050E00E9451067B018C014C
:100C3000C601B5012DE133EF41E050E00E9470069E
:100C4000CA01B9012CEE34EF4FEF5FEF0E9451065D
:100C50006E0D7F1D801F911F97FF04C06150704073
:100C600080409048688379838A839B839B013F7788
:100C7000C901CDB7DEB7EAE00C94AF060E94F005DB
:100C8000089582E291E00E94F0050895A0E0B0E0AE
:100C90008093220190932301A0932401B093250116
:100CA0000895629FD001739FF001829FE00DF11DB6
:100CB000649FE00DF11D929FF00D839FF00D749FD6
:100CC000F00D659FF00D9927729FB00DE11DF91F82
:100CD000639FB00DE11DF91FBD01CF0111240895DF
:100CE00097FB092E05260ED057FD04D04BD00AD015
:100CF000001C38F450954095309521953F4F4F4F4B
:100D00005F4F0895F6F790958095709561957F4FA8
:100D10008F4F9F4F08952F923F924F925F926F9205
:100D20007F928F929F92AF92BF92CF92DF92EF927B
:100D3000FF920F931F93CF93DF93CDB7DEB7CA1BFC
:100D4000DB0B0FB6F894DEBF0FBECDBF09942A8827
:100D5000398848885F846E847D848C849B84AA84CF
:100D6000B984C884DF80EE80FD800C811B81AA815C
:100D7000B981CE0FD11D0FB6F894DEBF0FBECDBF27
:100D8000ED010895A1E21A2EAA1BBB1BFD010DC0A7
:100D9000AA1FBB1FEE1FFF1FA217B307E407F5072B
:100DA00020F0A21BB30BE40BF50B661F771F881F07
:100DB000991F1A9469F760957095809590959B019D
:0C0DC000AC01BD01CF010895F894FFCFF5
:100DCC005AFF57616974696E672E2E2E2E2E2E2EA9
:100DDC002E2E526563696576656421000000000063
:060DEC0000000100000000
:00000001FF
