:100000000C9479000C94AA010C9496000C94960020
:100010000C9496000C9496000C9496000C94960008
:100020000C9496000C9496000C9496000C949600F8
:100030000C9496000C9496000C9496000C949600E8
:100040000C9496000C9496000C9496000C949600D8
:100050000C9496000C9496000C9496000C949600C8
:100060000C9496000C949600040309041403610098
:100070006D0063006E00690063006F006C006C002F
:100080000E035500530042004C004300440012018F
:100090001001FF000008C016DC050001010200018C
:1000A00009021200010100C0320904000000000032
:1000B00000000000000000000000001010101010F0
:1000C00010000018181818181800001C1C1C1C1C04
:1000D0001C00001E1E1E1E1E1E00001F1F1F1F1FB5
:1000E0001F0003020202020202031808080808089F
:1000F000081811241FBECFEFD8E0DEBFCDBF11E03E
:10010000A0E0B1E0EAE1FCE002C005900D92A2326D
:10011000B107D9F711E0A2E2B1E001C01D92AE35FE
:10012000B107E1F70E9499050C940B060C940000AE
:10013000E9E6F0E0808182608083E89A08951F9369
:10014000CF93DF9390913301935097FD8EC0209110
:10015000300180912F018D3209F085C0983009F06F
:1001600082C0CCE0D0E0C21BD109C95CDE4F83EC79
:10017000809323018AE580930001109222019881E7
:10018000892F807629F0CE010E942F05282F62C08A
:100190002A8110922C018981882349F49F7119F4D6
:1001A00081E080932C0110922D0122E04DC085301A
:1001B00019F42093340147C08630B1F58B8181302A
:1001C00019F48EE890E004C0823041F480EA90E0B7
:1001D000909332018093310122E122C08330F9F4FF
:1001E0008A81882341F488E690E0909332018093DD
:1001F000310124E015C0813041F48CE690E0909309
:1002000032018093310124E10BC0823041F480E857
:1002100090E090933201809331012EE001C020E004
:1002200080E48093220116C0883021F421E086E327
:1002300091E00CC0893019F42093360104C08A3053
:1002400011F421E001C020E08CE291E090933201B2
:10025000809331018F81882321F48E81821708F4E5
:10026000282F20930101109233018091000184FF17
:100270004AC0809101018F3F09F445C0182F893091
:1002800008F018E0811B809301018091230198E818
:10029000892780932301112341F12091310130916D
:1002A00032018091220186FF0DC0A4E2B1E080E01E
:1002B00090E0F901E80FF91FE491ED93019618170A
:1002C000C1F708C0912FD901E4E2F1E08D9181934B
:1002D0009150E1F71150812F90E01F5F0196820F3E
:1002E000931F909332018093310184E291E0612F5A
:1002F0000E94A601612F6C5F6C3019F08FEF809324
:1003000001016093000194E189B1847131F491504D
:10031000D9F71092340110922E01DF91CF911F91E5
:100320000895A82FB92F80E090E041E050EA609551
:1003300030E009C02D9182279795879510F084278A
:100340009527305EC8F36F5FA8F30895EADF8D93B9
:100350009D930895CF93CFB7CF93DF93C3954C9BD5
:10036000E9F74C9B11C04C9B0FC04C9B0DC04C9BA4
:100370000BC04C9B09C04C9B07C04C9B05C04C9BC1
:1003800003C04C9B01C081C06F93C0913001DD2739
:10039000C95CDE4F2F9320E400C065E04C9B03C096
:1003A0002F916F91DECF0F931F934F9345E55F938E
:1003B00055E53F933BE014E009B104712EC06A9506
:1003C000C9F03150D8F109B1047101130BC0089480
:1003D0002795299320E4555500F46A9569F701E0C3
:1003E00069B10BC0102F66E02695299320E455557E
:1003F00018F3E2CF0FEF69B10000162F455500F05A
:10040000404066E014710030E2F221F0000009B1D2
:10041000047103C009B10471A9F0011309C0089463
:10042000279568F200C06A95A9F700E069B1E5CFA9
:10043000102F66E0269528F20000ECCF11E01CBBDF
:10044000002717C03B503195C31BD04011E01CBBA7
:100450000881033CF9F00B34E9F020912E01198159
:10046000110F1213EDCF093651F10D3211F0013E8B
:1004700039F7009335013F915F914F911F910F9193
:100480002F916F91CCB3C0FD69CFDF91CF91CFBFDA
:10049000CF91189520913501222369F310913301F2
:1004A000112329F534302AF13093330120932F01A1
:1004B000109130013BE0311B309330011AC00091A4
:1004C00033010130A4F40AE53091000134FD12C07B
:1004D00000930001C3E2D1E011C0052710E000C085
:1004E0000BB919C0052710E0221F00C01DC04AE546
:1004F00002C032ED432FC4E1D0E032E01AB1146102
:100500005C9A0BB11AB954E120E869E420FF052791
:100510000BB92795179500C000001C3FF0F66695B3
:10052000A8F7A1F720FF05270BB92795179500001D
:100530001C3FC0F629913A9541F70B7E109134018A
:10054000110F0BB9C651D04011F010932E0111E0DC
:100550001CBB00611AB11B7E402F4B7E55E05A95A3
:10056000F1F70BB91AB94BB986CF87FF02C02D9AA4
:1005700001C02D9886FF02C02C9A01C02C9885FFDF
:1005800002C02B9A01C02B9884FF02C02A9A0895BA
:100590002A980895FF920F931F93F82E807F0E9450
:1005A000B502289A299A08E813E1C8010197F1F7E2
:1005B00029982898C8010197F1F78F2D8295807F9F
:1005C0000E94B502289A299AC8010197F1F7299843
:1005D0002898C8010197F1F71F910F91FF90089596
:1005E000FF920F931F93F82E807F0E94B502299AE5
:1005F00008E813E1C8010197F1F72998C8010197AC
:10060000F1F78F2D8295807F0E94B502299AC8014B
:100610000197F1F72998C8010197F1F71F910F9100
:10062000FF90089581E00E94F00208950F931F93B8
:10063000CF93DF938C01662311F080EC01C080E83A
:100640000E94F002C0E0D0E0F801EC0FFD1F8081B5
:100650000E94CA022196C031D105B1F7DF91CF9136
:100660001F910F910895623031F0633031F06130A5
:1006700029F4805C03C08C5E01C08C5A80680E94A3
:10068000F0020895EF92FF920F931F93CF93DF93A1
:100690007C01162F110F110F110F1064C0E0D0E074
:1006A000F701EC0FFD1F0491812F8C0F0E94F002C7
:1006B000802F0E94CA022196C830D10589F7DF91A8
:1006C000CF911F910F91FF90EF9008950F931F937B
:1006D000CF93DF9386E990E024EF31E0F901319781
:1006E000F1F70197D9F7229A239A249A259A209A0A
:1006F000209A219A80E00E94B5022898289829988B
:1007000080E30E94B502299A08E813E1C801019725
:10071000F1F72998C8010197F1F780E30E94B5022B
:10072000299AC8010197F1F72998C8010197F1F7B3
:1007300080E20E94B502299AC8010197F1F7299831
:10074000C8010197F1F788E20E94F0028CE00E9454
:10075000F002C2EBD0E060E0162F1F5FCE010E94D6
:1007600042032896612F1830B9F7DF91CF911F917E
:100770000F9108950F931F93082F10E004C088E194
:100780000E94F0021F5F1017D0F31F910F91089580
:100790000F931F93082F10E004C08EE10E94F00217
:1007A0001F5F1017D0F31F910F9108950F931F93A0
:1007B000082F10E004C080E10E94F0021F5F1017B4
:1007C000D0F31F910F9108950F931F93082F10E0FE
:1007D00004C084E10E94F0021F5F1017D0F31F9144
:1007E0000F91089587FF02C0459A01C0459886FF82
:1007F00002C0449A01C0449885FF02C0439A01C0D8
:10080000439884FF02C0429A089542980895FF9247
:100810000F931F93F82E807F0E94F203409A419A13
:1008200008E813E1C8010197F1F741984098C80121
:100830000197F1F78F2D8295807F0E94F203409AF5
:10084000419AC8010197F1F741984098C801019772
:10085000F1F71F910F91FF900895FF920F931F934F
:10086000F82E807F0E94F203419A08E813E1C80144
:100870000197F1F74198C8010197F1F78F2D829503
:10088000807F0E94F203419AC8010197F1F74198D5
:10089000C8010197F1F71F910F91FF90089581E032
:1008A0000E942D0408950F931F93CF93DF938C0123
:1008B000662311F080EC01C080E80E942D04C0E0A6
:1008C000D0E0F801EC0FFD1F80810E940704219603
:1008D000C031D105B1F7DF91CF911F910F910895EC
:1008E000623031F0633031F0613029F4805C03C054
:1008F0008C5E01C08C5A80680E942D040895EF928E
:10090000FF920F931F93CF93DF937C01162F110F4C
:10091000110F110F1064C0E0D0E0F701EC0FFD1FC4
:100920000491812F8C0F0E942D04802F0E940704B8
:100930002196C830D10589F7DF91CF911F910F9192
:10094000FF90EF9008950F931F93CF93DF9386E965
:1009500090E024EF31E0F9013197F1F70197D9F7F1
:100960003A9A3B9A3C9A3D9A389A389A399A80E05A
:100970000E94F20340984098419880E30E94F2035D
:10098000419A08E813E1C8010197F1F74198C801BD
:100990000197F1F780E30E94F203419AC8010197A1
:1009A000F1F74198C8010197F1F780E20E94F20344
:1009B000419AC8010197F1F74198C8010197F1F7F1
:1009C00088E20E942D048CE00E942D04C2EBD0E04E
:1009D00060E0162F1F5FCE010E947F042896612FD2
:1009E0001830B9F7DF91CF911F910F9108950F93B0
:1009F0001F93082F10E004C088E10E942D041F5FA0
:100A00001017D0F31F910F9108950F931F93082F84
:100A100010E004C08EE10E942D041F5F1017D0F378
:100A20001F910F9108950F931F93082F10E004C09A
:100A300080E10E942D041F5F1017D0F31F910F91CA
:100A400008950F931F93082F10E004C084E10E94C3
:100A50002D041F5F1017D0F31F910F910895FC0113
:100A600021813281222311F45F9861C0213011F479
:100A70005F9A5DC0223029F40E9412030E944F0445
:100A800056C0832F90E0233049F4892B19F484B5A4
:100A90008F7D1AC038BD84B5806216C0243071F4D1
:100AA000892B21F48091B0008F7705C03093B4007A
:100AB0008091B00080628093B00039C0253051F43D
:100AC000892B21F484B58F7784BD31C037BD84B5BF
:100AD0008068FACF263021F48DE491E060E005C013
:100AE000273031F48DE491E061E00E9416031FC0CD
:100AF000283021F48DE491E060E005C0293031F424
:100B00008DE491E061E00E94530411C02A3019F491
:100B100010925D010CC02B3051F480915D01E82FE3
:100B2000F0E0E35BFE4F30838F5F80935D0180E0F8
:100B30000895569A559A539A579A5F9A83EA84BDB4
:100B400083E28093B00085E085BD87E08093B100AB
:100B50008FEF88BD8093B40080E29EE424EF31E003
:100B6000F9013197F1F70197D9F78FE788BD8093A5
:100B7000B40020E03FEF44EF51E037BD80ED97E057
:100B8000FA013197F1F70197D9F717BC80ED97E09B
:100B9000FA013197F1F70197D9F72F5F233069F701
:100BA00084E187BD80ED97E024EF31E0F9013197D2
:100BB000F1F70197D9F70E9466030E9412030E9481
:100BC000A3040E944F0482E091E060E00E941603BB
:100BD0002EE088E190E00FB6F894A895809360002D
:100BE0000FBE209360000E949800549A20E048E8CD
:100BF00053E1A895CA010197F1F72F5F283CC9F787
:100C00005498789482E191E060E00E945304A895A2
:0A0C10000E949F00FCCFF894FFCF74
:100C1A005AFF4C4344005265616479210000000088
:100C2A0000005553420052656164792100000000BA
:020C3A000000B8
:00000001FF
